{
  "_format": "hh-sol-artifact-1",
  "contractName": "ItemManager",
  "sourceName": "contracts/ItemManager.sol",
  "abi": [
    {
      "anonymous": false,
      "inputs": [
        {
          "indexed": false,
          "internalType": "uint256",
          "name": "_itemIndex",
          "type": "uint256"
        },
        {
          "indexed": false,
          "internalType": "uint256",
          "name": "_step",
          "type": "uint256"
        },
        {
          "indexed": false,
          "internalType": "address",
          "name": "_itemAddress",
          "type": "address"
        }
      ],
      "name": "SupplyChainStep",
      "type": "event"
    },
    {
      "inputs": [
        {
          "internalType": "string",
          "name": "_identifier",
          "type": "string"
        },
        {
          "internalType": "uint256",
          "name": "_itemPrice",
          "type": "uint256"
        }
      ],
      "name": "createItem",
      "outputs": [],
      "stateMutability": "nonpayable",
      "type": "function"
    },
    {
      "inputs": [],
      "name": "isOwner",
      "outputs": [
        {
          "internalType": "bool",
          "name": "",
          "type": "bool"
        }
      ],
      "stateMutability": "view",
      "type": "function"
    },
    {
      "inputs": [],
      "name": "itemIndex",
      "outputs": [
        {
          "internalType": "uint256",
          "name": "",
          "type": "uint256"
        }
      ],
      "stateMutability": "view",
      "type": "function"
    },
    {
      "inputs": [
        {
          "internalType": "uint256",
          "name": "",
          "type": "uint256"
        }
      ],
      "name": "items",
      "outputs": [
        {
          "internalType": "contract Item",
          "name": "_item",
          "type": "address"
        },
        {
          "internalType": "string",
          "name": "_identifier",
          "type": "string"
        },
        {
          "internalType": "uint256",
          "name": "_itemPrice",
          "type": "uint256"
        },
        {
          "internalType": "enum ItemManager.SupplyChainState",
          "name": "_state",
          "type": "uint8"
        }
      ],
      "stateMutability": "view",
      "type": "function"
    },
    {
      "inputs": [
        {
          "internalType": "uint256",
          "name": "_itemIndex",
          "type": "uint256"
        }
      ],
      "name": "triggerDelivery",
      "outputs": [],
      "stateMutability": "nonpayable",
      "type": "function"
    },
    {
      "inputs": [
        {
          "internalType": "uint256",
          "name": "_itemIndex",
          "type": "uint256"
        }
      ],
      "name": "triggerPayment",
      "outputs": [],
      "stateMutability": "payable",
      "type": "function"
    }
  ],
  "bytecode": "0x608060405234801561001057600080fd5b50336000806101000a81548173ffffffffffffffffffffffffffffffffffffffff021916908373ffffffffffffffffffffffffffffffffffffffff160217905550611922806100606000396000f3fe6080604052600436106200005c5760003560e01c8063800fb83f14620000615780638c55174214620000815780638f32d59b14620000af578063bfb231d214620000df578063cd31831e1462000126578063e07bb1a71462000154575b600080fd5b6200007f600480360381019062000079919062000b91565b62000184565b005b3480156200008e57600080fd5b50620000ad6004803603810190620000a7919062000b37565b620003f1565b005b348015620000bc57600080fd5b50620000c762000647565b604051620000d6919062000d2a565b60405180910390f35b348015620000ec57600080fd5b506200010b600480360381019062000105919062000b91565b6200069e565b6040516200011d949392919062000d84565b60405180910390f35b3480156200013357600080fd5b506200015260048036038101906200014c919062000b91565b6200078b565b005b3480156200016157600080fd5b506200016c620009ea565b6040516200017b919062000e3e565b60405180910390f35b34600160008381526020019081526020016000206002015414620001df576040517f08c379a0000000000000000000000000000000000000000000000000000000008152600401620001d69062000e1c565b60405180910390fd5b600060028111156200021a577f4e487b7100000000000000000000000000000000000000000000000000000000600052602160045260246000fd5b6001600083815260200190815260200160002060030160009054906101000a900460ff16600281111562000277577f4e487b7100000000000000000000000000000000000000000000000000000000600052602160045260246000fd5b14620002ba576040517f08c379a0000000000000000000000000000000000000000000000000000000008152600401620002b19062000dd8565b60405180910390fd5b600180600083815260200190815260200160002060030160006101000a81548160ff021916908360028111156200031a577f4e487b7100000000000000000000000000000000000000000000000000000000600052602160045260246000fd5b02179055507fa4035636e99f06b7651a604c1019fa4e8779fe68ef27eeb74dff2de348f6199b816001600084815260200190815260200160002060030160009054906101000a900460ff1660028111156200039e577f4e487b7100000000000000000000000000000000000000000000000000000000600052602160045260246000fd5b6001600085815260200190815260200160002060000160009054906101000a900473ffffffffffffffffffffffffffffffffffffffff16604051620003e69392919062000e5b565b60405180910390a150565b620003fb62000647565b6200043d576040517f08c379a0000000000000000000000000000000000000000000000000000000008152600401620004349062000dfa565b60405180910390fd5b600030826002546040516200045290620009f0565b620004609392919062000d47565b604051809103906000f0801580156200047d573d6000803e3d6000fd5b5090508060016000600254815260200190815260200160002060000160006101000a81548173ffffffffffffffffffffffffffffffffffffffff021916908373ffffffffffffffffffffffffffffffffffffffff16021790555082600160006002548152602001908152602001600020600101908051906020019062000505929190620009fe565b508160016000600254815260200190815260200160002060020181905550600060016000600254815260200190815260200160002060030160006101000a81548160ff0219169083600281111562000586577f4e487b7100000000000000000000000000000000000000000000000000000000600052602160045260246000fd5b02179055507fa4035636e99f06b7651a604c1019fa4e8779fe68ef27eeb74dff2de348f6199b60025460016000600254815260200190815260200160002060030160009054906101000a900460ff1660028111156200060e577f4e487b7100000000000000000000000000000000000000000000000000000000600052602160045260246000fd5b83604051620006209392919062000e5b565b60405180910390a1600260008154809291906200063d9062001059565b9190505550505050565b60008060009054906101000a900473ffffffffffffffffffffffffffffffffffffffff1673ffffffffffffffffffffffffffffffffffffffff163373ffffffffffffffffffffffffffffffffffffffff1614905090565b60016020528060005260406000206000915090508060000160009054906101000a900473ffffffffffffffffffffffffffffffffffffffff1690806001018054620006e99062001023565b80601f0160208091040260200160405190810160405280929190818152602001828054620007179062001023565b8015620007685780601f106200073c5761010080835404028352916020019162000768565b820191906000526020600020905b8154815290600101906020018083116200074a57829003601f168201915b5050505050908060020154908060030160009054906101000a900460ff16905084565b6200079562000647565b620007d7576040517f08c379a0000000000000000000000000000000000000000000000000000000008152600401620007ce9062000dfa565b60405180910390fd5b6001600281111562000812577f4e487b7100000000000000000000000000000000000000000000000000000000600052602160045260246000fd5b6001600083815260200190815260200160002060030160009054906101000a900460ff1660028111156200086f577f4e487b7100000000000000000000000000000000000000000000000000000000600052602160045260246000fd5b14620008b2576040517f08c379a0000000000000000000000000000000000000000000000000000000008152600401620008a99062000dd8565b60405180910390fd5b60026001600083815260200190815260200160002060030160006101000a81548160ff0219169083600281111562000913577f4e487b7100000000000000000000000000000000000000000000000000000000600052602160045260246000fd5b02179055507fa4035636e99f06b7651a604c1019fa4e8779fe68ef27eeb74dff2de348f6199b816001600084815260200190815260200160002060030160009054906101000a900460ff16600281111562000997577f4e487b7100000000000000000000000000000000000000000000000000000000600052602160045260246000fd5b6001600085815260200190815260200160002060000160009054906101000a900473ffffffffffffffffffffffffffffffffffffffff16604051620009df9392919062000e5b565b60405180910390a150565b60025481565b61074780620011a683390190565b82805462000a0c9062001023565b90600052602060002090601f01602090048101928262000a30576000855562000a7c565b82601f1062000a4b57805160ff191683800117855562000a7c565b8280016001018555821562000a7c579182015b8281111562000a7b57825182559160200191906001019062000a5e565b5b50905062000a8b919062000a8f565b5090565b5b8082111562000aaa57600081600090555060010162000a90565b5090565b600062000ac562000abf8462000ecc565b62000e98565b90508281526020810184848401111562000ade57600080fd5b62000aeb84828562000fde565b509392505050565b600082601f83011262000b0557600080fd5b813562000b1784826020860162000aae565b91505092915050565b60008135905062000b31816200118b565b92915050565b6000806040838503121562000b4b57600080fd5b600083013567ffffffffffffffff81111562000b6657600080fd5b62000b748582860162000af3565b925050602062000b878582860162000b20565b9150509250929050565b60006020828403121562000ba457600080fd5b600062000bb48482850162000b20565b91505092915050565b62000bc88162000f1b565b82525050565b62000bd98162000f2f565b82525050565b62000bea8162000f7a565b82525050565b62000bfb8162000fa2565b82525050565b62000c0c8162000fca565b82525050565b600062000c1f8262000eff565b62000c2b818562000f0a565b935062000c3d81856020860162000fed565b62000c488162001163565b840191505092915050565b600062000c62601d8362000f0a565b91507f4974656d206973206675727468657220696e2074686520636861696e210000006000830152602082019050919050565b600062000ca460158362000f0a565b91507f596f7520617265206e6f7420746865206f776e657200000000000000000000006000830152602082019050919050565b600062000ce6601c8362000f0a565b91507f4f6e6c792066756c6c207061796d656e747320616363657074656421000000006000830152602082019050919050565b62000d248162000f70565b82525050565b600060208201905062000d41600083018462000bce565b92915050565b600060608201905062000d5e600083018662000bdf565b62000d6d602083018562000d19565b62000d7c604083018462000d19565b949350505050565b600060808201905062000d9b600083018762000bf0565b818103602083015262000daf818662000c12565b905062000dc0604083018562000d19565b62000dcf606083018462000c01565b95945050505050565b6000602082019050818103600083015262000df38162000c53565b9050919050565b6000602082019050818103600083015262000e158162000c95565b9050919050565b6000602082019050818103600083015262000e378162000cd7565b9050919050565b600060208201905062000e55600083018462000d19565b92915050565b600060608201905062000e72600083018662000d19565b62000e81602083018562000d19565b62000e90604083018462000bbd565b949350505050565b6000604051905081810181811067ffffffffffffffff8211171562000ec25762000ec162001134565b5b8060405250919050565b600067ffffffffffffffff82111562000eea5762000ee962001134565b5b601f19601f8301169050602081019050919050565b600081519050919050565b600082825260208201905092915050565b600062000f288262000f50565b9050919050565b60008115159050919050565b600081905062000f4b8262001174565b919050565b600073ffffffffffffffffffffffffffffffffffffffff82169050919050565b6000819050919050565b600062000f878262000f8e565b9050919050565b600062000f9b8262000f50565b9050919050565b600062000faf8262000fb6565b9050919050565b600062000fc38262000f50565b9050919050565b600062000fd78262000f3b565b9050919050565b82818337600083830152505050565b60005b838110156200100d57808201518184015260208101905062000ff0565b838111156200101d576000848401525b50505050565b600060028204905060018216806200103c57607f821691505b6020821081141562001053576200105262001105565b5b50919050565b6000620010668262000f70565b91507fffffffffffffffffffffffffffffffffffffffffffffffffffffffffffffffff8214156200109c576200109b620010a7565b5b600182019050919050565b7f4e487b7100000000000000000000000000000000000000000000000000000000600052601160045260246000fd5b7f4e487b7100000000000000000000000000000000000000000000000000000000600052602160045260246000fd5b7f4e487b7100000000000000000000000000000000000000000000000000000000600052602260045260246000fd5b7f4e487b7100000000000000000000000000000000000000000000000000000000600052604160045260246000fd5b6000601f19601f8301169050919050565b60038110620011885762001187620010d6565b5b50565b620011968162000f70565b8114620011a257600080fd5b5056fe608060405234801561001057600080fd5b50604051610747380380610747833981810160405281019061003291906100b3565b816000819055508060028190555082600360006101000a81548173ffffffffffffffffffffffffffffffffffffffff021916908373ffffffffffffffffffffffffffffffffffffffff16021790555050505061017e565b60008151905061009881610150565b92915050565b6000815190506100ad81610167565b92915050565b6000806000606084860312156100c857600080fd5b60006100d686828701610089565b93505060206100e78682870161009e565b92505060406100f88682870161009e565b9150509250925092565b600061010d82610126565b9050919050565b600061011f82610102565b9050919050565b600073ffffffffffffffffffffffffffffffffffffffff82169050919050565b6000819050919050565b61015981610114565b811461016457600080fd5b50565b61017081610146565b811461017b57600080fd5b50565b6105ba8061018d6000396000f3fe6080604052600436106100385760003560e01c80632986c0e5146102505780633c8da5881461027b57806389794d00146102a657610241565b3661024157600060015414610082576040517f08c379a000000000000000000000000000000000000000000000000000000000815260040161007990610420565b60405180910390fd5b34600054146100c6576040517f08c379a00000000000000000000000000000000000000000000000000000000081526004016100bd90610440565b60405180910390fd5b34600160008282546100d891906104c2565b925050819055506000600360009054906101000a900473ffffffffffffffffffffffffffffffffffffffff1673ffffffffffffffffffffffffffffffffffffffff163460025460405160240161012e9190610480565b6040516020818303038152906040527f800fb83f000000000000000000000000000000000000000000000000000000007bffffffffffffffffffffffffffffffffffffffffffffffffffffffff19166020820180517bffffffffffffffffffffffffffffffffffffffffffffffffffffffff83818316178352505050506040516101b89190610409565b60006040518083038185875af1925050503d80600081146101f5576040519150601f19603f3d011682016040523d82523d6000602084013e6101fa565b606091505b505090508061023e576040517f08c379a000000000000000000000000000000000000000000000000000000000815260040161023590610460565b60405180910390fd5b50005b34801561024d57600080fd5b50005b34801561025c57600080fd5b506102656102d1565b6040516102729190610480565b60405180910390f35b34801561028757600080fd5b506102906102d7565b60405161029d9190610480565b60405180910390f35b3480156102b257600080fd5b506102bb6102dd565b6040516102c89190610480565b60405180910390f35b60025481565b60005481565b60015481565b60006102ee8261049b565b6102f881856104a6565b9350610308818560208601610522565b80840191505092915050565b60006103216015836104b1565b91507f4974656d20697320616c726561647920706169642100000000000000000000006000830152602082019050919050565b6000610361601f836104b1565b91507f4f6e6c792066756c6c207061796d656e74732061726520616c6c6f77656421006000830152602082019050919050565b60006103a1602d836104b1565b91507f546865207472616e73616374696f6e207761736e27742073756363657373667560008301527f6c2c2063616e63656c6c696e67000000000000000000000000000000000000006020830152604082019050919050565b61040381610518565b82525050565b600061041582846102e3565b915081905092915050565b6000602082019050818103600083015261043981610314565b9050919050565b6000602082019050818103600083015261045981610354565b9050919050565b6000602082019050818103600083015261047981610394565b9050919050565b600060208201905061049560008301846103fa565b92915050565b600081519050919050565b600081905092915050565b600082825260208201905092915050565b60006104cd82610518565b91506104d883610518565b9250827fffffffffffffffffffffffffffffffffffffffffffffffffffffffffffffffff0382111561050d5761050c610555565b5b828201905092915050565b6000819050919050565b60005b83811015610540578082015181840152602081019050610525565b8381111561054f576000848401525b50505050565b7f4e487b7100000000000000000000000000000000000000000000000000000000600052601160045260246000fdfea26469706673582212209edeff5dc34c4f8dedeebf50a5ff0a2d39c4babb71ca65742b7eb02057dce7fc64736f6c63430008000033a2646970667358221220f6a65250c5137e1edf239d2447efc6a03559aeaa7b13729858126b886144347464736f6c63430008000033",
  "linkReferences": {},
  "deployedLinkReferences": {}
}